:020000040800F2
:1000000000000320ED0100083D0200083D02000849
:100010003D0200083D0200083D020008000000000B
:100020000000000000000000000000003D02000889
:100030003D020008000000003D020008690B0008B6
:100040003D0200083D0200083D0200083D02000894
:100050003D0200083D0200083D0200083D02000884
:100060003D0200083D0200083D0200083D02000874
:100070003D0200083D0200083D0200083D02000864
:100080003D0200083D0200083D0200083D02000854
:100090003D0200083D0200083D0200083D02000844
:1000A0003D0200083D0200083D0200083D02000834
:1000B0003D0200083D0200083D0200083D02000824
:1000C0003D0200083D0200083D0200083D02000814
:1000D0003D020008790B00083D0200083D020008BF
:1000E0003D0200083D0200083D0200083D020008F4
:1000F0003D0200083D0200083D0200083D020008E4
:100100003D0200083D0200083D0200083D020008D3
:100110003D0200083D0200083D0200083D020008C3
:100120003D0200083D0200083D0200083D020008B3
:100130003D0200083D0200083D0200083D020008A3
:100140003D0200083D0200083D0200083D02000893
:100150003D0200083D0200083D0200083D02000883
:100160003D0200083D0200083D0200083D02000873
:100170003D0200083D0200083D02000800000000AA
:100180003D0200083D0200083D0200083D02000853
:100190003D0200083D0200083D0200083D02000843
:0C01A000850B00083D0200083D0200082D
:1001AC0010B5054C237833B9044B13B10448AFF3A5
:1001BC0000800123237010BD740500200000000096
:1001CC004C9B000808B5034B1BB103490348AFF324
:1001DC00008008BD00000000780500204C9B000842
:1001EC00DFF834D0002103E00C4B5B584350043152
:1001FC000B480C4B42189A42F6D30B4A02E00023F0
:10020C0042F8043B094B9A42F9D301F0FBFB09F08D
:10021C00ADF800F0C1FA704700000320CCB4000820
:10022C00000000207405002074050020102402201A
:10023C00FEE700002DE9F04196B00024504D01F08E
:10024C001BFC01F0C9FA4FF4A071F02001F0B8FBCF
:10025C0003942B6B43F480232B632B6B03F48023CD
:10026C000393039B04942B6B43F480532B632B6BF2
:10027C0003F480530493049B01942B6C43F0805340
:10028C002B642B6C03F080530193019B3D4B029428
:10029C001A6842F440421A601B6803F4404302930C
:1002AC00029B4FF480031193082312934FF4A8730D
:1002BC000126022713930AA8072315930A960B9677
:1002CC001097149702F0A2FD4FF4A0534FF00F08B3
:1002DC00089305214FF4805305A80993CDF8148099
:1002EC000697079402F038FF042001F063FC2246C5
:1002FC0041464FF0FF3001F007FC00942B6B334369
:10030C002B632B6B33400093009B05942B6B43F0BA
:10031C0040032B632B6BA5F5005503F040032246DD
:10032C00059328464FF4C041059B01F0DDFE0AA958
:10033C004FF4C04328460A930B960C940D9401F08D
:10034C003BFD00F03FF9104B104A1A600AA8104B05
:10035C000A9303F04AF90F480F4A104B846080E867
:10036C000C004FF480430361C46044618461C46138
:10037C00046202F085F800F04BF916B0BDE8F0818C
:10038C000038024000700040842100206D050008F8
:10039C0000080650E8200020005C0040801A06008F
:1003AC002DE9F047DFF8C080294F064609F032F8F6
:1003BC00B8F8003090FBF3F404FB13003C78DFF842
:1003CC00909014FB00F409F025F8224B1B8890FB4D
:1003DC00F3F505FB13003D78A4B215FB00F521469F
:1003EC001D48ADB200F0C5FC29461C4800F0C1FC0C
:1003FC004FF0000A012231781FFA8AF3994210D388
:10040C0006EBC303B3F910108C4207D1B3F91230C9
:10041C009D4203D1124800F0ACFC00220AF1010A03
:10042C00E9E7002AC2D099F80000A9F80240A9F81F
:10043C000450044405444FF47F40A9F80640A9F841
:10044C00085007F027F80748BDE8F04707F0E0B878
:10045C0094050020A4050020AF9B0008BC9B00085D
:10046C00649B0008960500209205002038B50B4CC3
:10047C000B4BE360207006F0AFFA0A4D288006F0B3
:10048C00B3FA094922782B8893FBF2F30B80074BC4
:10049C0080B290FBF2F01880204638BD9405002005
:1004AC00AD0300089005002092050020A405002053
:1004BC0008B5042004F0E0F807F0E4FA6FF07F4090
:1004CC0006F0E6FFBDE8084007F0A2BAF0B589B027
:1004DC00074606F081FA022690FBF6F406F084FA41
:1004EC00A2B2A2F1500390FBF6F5ADF80430ABB21A
:1004FC00A3F13201503232331548ADF80A30ADF861
:10050C000610ADF8082006F0C5FF01A807F080F82A
:10051C00002006F0BFFF0F4806F0B0FF304606F093
:10052C00A3FFA5F1230221460B4807F09FF81422E4
:10053C00002103A808F066FF3A4603A8074900F01B
:10054C0025FC6A1D214603A807F090F809B0F0BD00
:10055C00D3D3D30048AC00086D9B0008779B0008F0
:10056C0007B502A9012201F8010D064803F05CFB56
:10057C00054B01221A701A78002AFCD103B05DF8E1
:10058C0004FB00BF3C210020A70500200268044B9F
:10059C009A4204D101220349034803F064BB70471B
:1005AC0000100140A60500203C2100200268034BEE
:1005BC009A4202BF024B00221A7070470010014091
:1005CC00A705002038B50F4A0F4C00254FF4E13336
:1005DC0084E82C0020460C236361E5602561A5614D
:1005EC00E56103F0F3FA2A460221252001F08CFA8A
:1005FC00252001F0BDFA204601220449BDE838400F
:10060C0003F031BB001001403C210020A605002066
:10061C007FB506AA572302F8013D642302930123F8
:10062C008DE80C0032212022054801F0B1FF08B101
:10063C00044800E0044800F09CFB07B05DF804FBA4
:10064C00E8200020819B0008909B000810B586B024
:10065C00642302930623019304AB0093A822012385
:10066C003221184802F018F89DF810309DF811202E
:10067C009DF813009DF81540134943EA02229DF89A
:10068C00123043EA00209DF8143012B200B243EA53
:10069C0004230A8048808B8042F210718A4209DC64
:1006AC000A4B9A4208DB884208DC9842B4BF04200B
:1006BC00002004E0012002E0022000E0032006B04C
:1006CC0010BD00BFE82000207C210020F0D8FFFFE7
:1006DC004FF40051014801F00BBD00BF001802405F
:1006EC0070B5002000F010FF01280646154A24D1F1
:1006FC0013780133DBB2032B137022D9124D2B78F4
:10070C00FBB907F085F906F067F9044606F06CF9B9
:10071C000223282290FBF3F194FBF3F0C9B2C0B290
:10072C0000F05AF9094B1860094B1B68DB689847B5
:10073C00084B094ADA602E7070BD034900230B7018
:10074C00137070BDA9050020A8050020B405002079
:10075C00B8050020000000206907000810B50B4CFC
:10076C0023689B68984738B9094BD8602368BDE863
:10077C0010401878FFF7AABE2368064A5B68106819
:10078C0098472368BDE81040DB681847B405002083
:10079C0000000020B805002080B5FFF74BFDFFF7E7
:1007AC0087FE2548254D264F00F0E3FA06F014F994
:1007BC00044606F019F90223282290FBF3F194FB6E
:1007CC00F3F0C9B2C0B200F007F91E4C206028202B
:1007DC00FFF74CFE1C4B1860C36820681B4C9847F5
:1007EC001B4BE3600021084600F054FE2E4601F03E
:1007FC0065F9DFF84C80DFF85490386000232B70DB
:10080C003378022BF3D84FF00C0A0AFB03F3E018F1
:10081C00D8F800208168521A41688A4207D3E358FD
:10082C002BB198472B783A680AFB03939A6033787C
:10083C0001333370E4E700BF9D9B0008B005002036
:10084C00AC050020B4050020B805002000000020F5
:10085C006907000838B50020084C06F01BFE002084
:10086C002378451C80B2834206D3023004EBC000CF
:10087C0006F0CEFE2846F3E738BD00BFBC050020CD
:10088C00F8B5FFF7E3FE354CE8B1FFF7DFFE227851
:10089C00334B92B1421E032A0FD8DFE802F0020557
:1008AC00080B1A78022A07E01A78012A04E01A7851
:1008BC00042A01E01A78032A01D0187000E01046CF
:1008CC0041F61003E054274B274A03CB41F61003A3
:1008DC001060E35C5160013B032B12D8DFE803F09E
:1008EC0002050B086278524200E06278002105E0B4
:1008FC000022617802E06178002249421A4806F031
:10090C0015FEB4F91460154D06F066F8864223DC2A
:10091C00B5F91030002B1FDBB5F9166006F064F842
:10092C00864219DCB5F91210002915DB2878B5F9C7
:10093C001060012383420DD89A1C34F93270B742EF
:10094C0005D105EBC202B2F902208A4204D0013370
:10095C009BB2EFE70120F8BD0020F8BDBC050020DC
:10096C00D81D0020CC050020D01D002038B5174D17
:10097C00B0F90230B5F90020154C9A420CD1B5F9FA
:10098C000220B0F904309A4206D123780133237047
:10099C00C3682046984705E02078023004EBC0007D
:1009AC0007F0ACF823785BB1591C04EBC10103C907
:1009BC009A1C04EBC202013B82E803009BB2F2E7F3
:1009CC00044B2868696803C338BD00BFD01D0020E4
:1009DC00BC050020CC05002010B5134C03466270FA
:1009EC001248606092B223821148A0601344A38223
:1009FC000A4441F610030F48E2826182E060002055
:100A0C00E054207006F046FD04F1100006F000FEE4
:100A1C00B4F91010084800F0ACF9B4F912100748FA
:100A2C0000F0A7F9204610BDBC050020790900088C
:100A3C008D08000861080008A99B0008B69B0008F7
:100A4C0008B5032001F04EF800220F214FF0FF30C3
:100A5C00BDE8084001F058B87FB50268104B9A42C7
:100A6C001AD1002300930F4B0F485A6C42F010021E
:100A7C005A645B6C03F010030093009B4FF4C0634B
:100A8C00019302230293012303930323049301A9EB
:100A9C000723059301F090F907B05DF804FB00BF44
:100AAC00001001400038024000000240F0B502681E
:100ABC00164B9A4287B027D104244FF400731227A7
:100ACC00012602250DEB04011148019302970396B0
:100ADC000495059401F070F94FF480730DEB04014B
:100AEC000C480193029703960495059401F064F960
:100AFC0000230093084B1A6C42F400021A641B6C1E
:100B0C0003F400030093009B07B0F0BD005C0040B1
:100B1C0000080240000002400038024008B502689C
:100B2C000A4B9A4210D10A4A0A48136C23F4000368
:100B3C0013644FF4007101F02BFA4FF480710648E6
:100B4C00BDE8084001F024BA08BD00BF005C0040BD
:100B5C0000380240000802400000024008B500F0D6
:100B6C00A5FFBDE8084001F032B80000014803F0D1
:100B7C00DBB800BF3C210020014801F091BF00BF51
:100B8C00E02102200A2810B5044602D10D20FFF7FF
:100B9C00F9FF074A13681BB1591C1C70116010BD7A
:100BAC00044B1B681BB12046BDE81040184710BD14
:100BBC00DC1D00208421002010B5441E14F8010F08
:100BCC0010B1FFF7DFFFF9E710BD2DE9FF47024633
:100BDC000D461078002800F0C980252801D0571C3C
:100BEC006BE05378302B03D1D71C9378012607E0A8
:100BFC002D2B0DBF9378971C0026D71C08BF0226FF
:100C0C004FF000080A21A3F13002092A06D801FB93
:100C1C000838A8F1300817F8013BF4E703F0DF02BD
:100C2C004C2A02BF3B7846F004060137002B00F03B
:100C3C009D80602B86BFA3F12002D2B21A464F2AA8
:100C4C0012D006D8432A30D0442A3CD0422A38D07D
:100C5C0032E0552A37D0582A2CD0532A2CD1D5F82B
:100C6C0000902C1D4B4601E008202DE0C9EB03053C
:100C7C0013F8012B002AF9D1B00709D4454505F129
:100C8C00010604D22020FFF77DFF3546F6E73546F6
:100C9C004846FFF791FFA84502D825463A4698E703
:100CAC002020FFF76FFF0135F5E728782C1DFFF7A3
:100CBC0069FFF2E7102007E01846FFF763FF2C46A8
:100CCC00EBE7022000E00A20442A296805F104041D
:100CDC0004D10029BCBF494246F00806782B14BF4A
:100CEC004FF0070C4FF0270C0022B1FBF0FE00FB7D
:100CFC001E15EBB2092D84BF6344DBB23033714651
:100D0C00551C0DF80230BEF1000F04D0102D01D08F
:100D1C002A46EAE70F22310705D504AB1D442D23E3
:100D2C0005F8103C951C16F0010F14BF4FF0300A5B
:100D3C004FF0200AB307A94609D4C14509F10106B1
:100D4C0004D25046FFF71EFFB146F6E7B146013D0F
:100D5C001DF80500FFF716FF002DF8D1C8459CD9EA
:100D6C002020FFF70FFF09F10109F7E704B0BDE8F8
:100D7C00F0870FB407B504A951F8040B0191FFF7E4
:100D8C0024FF03B05DF804EB04B070470EB417B544
:100D9C0005A9084C51F8043B206018460191FFF757
:100DAC0014FF226800231370236003B0BDE81040C9
:100DBC0003B07047DC1D002008B500F0AFFBCA2063
:100DCC0000F024FCC32000F005FC082000F002FC1D
:100DDC00502000F0FFFBCF2000F018FC002000F0AA
:100DEC00F9FBC12000F0F6FB302000F0F3FBED2006
:100DFC0000F00CFC642000F0EDFB032000F0EAFB9B
:100E0C00122000F0E7FB812000F0E4FBE82000F06A
:100E1C00FDFB852000F0DEFB002000F0DBFB7820E2
:100E2C0000F0D8FBCB2000F0F1FB392000F0D2FB16
:100E3C002C2000F0CFFB002000F0CCFB342000F085
:100E4C00C9FB022000F0C6FBF72000F0DFFB2020DE
:100E5C0000F0C0FBEA2000F0D9FB002000F0BAFB48
:100E6C00002000F0B7FBB12000F0D0FB002000F018
:100E7C00B1FB1B2000F0AEFBB62000F0C7FB0A2034
:100E8C0000F0A8FBA22000F0A5FBC02000F0BEFBE8
:100E9C00102000F09FFBC12000F0B8FB102000F0E8
:100EAC0099FBC52000F0B2FB452000F093FB152008
:100EBC0000F090FBC72000F0A9FB902000F08AFB0B
:100ECC00362000F0A3FBC82000F084FBF22000F0D9
:100EDC009DFB002000F07EFBB02000F097FBC220B1
:100EEC0000F078FBB62000F091FB0A2000F072FBBA
:100EFC00A72000F06FFB272000F06CFB042000F013
:100F0C0069FB2A2000F082FB002000F063FB00202C
:100F1C0000F060FB002000F05DFBEF2000F05AFBBE
:100F2C002B2000F073FB002000F054FB002000F09D
:100F3C0051FB012000F04EFB3F2000F04BFBF62054
:100F4C0000F064FB012000F045FB002000F042FBA8
:100F5C00062000F03FFB2C2000F058FBC82000F0CE
:100F6C0071FB262000F052FB012000F033FBE02047
:100F7C0000F04CFB0F2000F02DFB292000F02AFB89
:100F8C00242000F027FB0C2000F024FB0E2000F0A6
:100F9C0021FB092000F01EFB4E2000F01BFB7820EB
:100FAC0000F018FB3C2000F015FB092000F012FBB0
:100FBC00132000F00FFB052000F00CFB172000F0B5
:100FCC0009FB112000F006FB002000F003FBE120E0
:100FDC0000F01CFB002000F0FDFA162000F0FAFADD
:100FEC001B2000F0F7FA042000F0F4FA112000F0B6
:100FFC00F1FA072000F0EEFA312000F0EBFA332082
:10100C0000F0E8FA422000F0E5FA052000F0E2FAE0
:10101C000C2000F0DFFA0A2000F0DCFA282000F0A7
:10102C00D9FA2F2000F0D6FA0F2000F0D3FA1120B5
:10103C0000F0ECFAC82000F005FB292000F0E6FADD
:10104C002C20BDE8084000F0E1BA10B5C4B2022271
:10105C000321204600F024FB0A2000F06DFB204603
:10106C000022032100F01CFB0220BDE8104000F020
:10107C0063BB38B50446E4B200F0E6FA0021204622
:10108C0000F028FB01210546204600F023FB40EA36
:10109C00052080B238BD10B5C4B24021204600F006
:1010AC0019FB030607D54C21204600F013FB00303A
:1010BC0018BF012010BD204601224B2100F0F0FA90
:1010CC00204600224B2100F0EBFA002010BD73B536
:1010DC000423C4B20E461546D7210DEB030220465D
:1010EC0000F014FB019B1BBA1A0DC3F30B233280C7
:1010FC0020462B8001224B2100F0D2FA00224B21FA
:10110C00204600F0CDFA02B070BD000010B50A4BBD
:10111C001A78904204460ED05978884200D110BDFE
:10112C000AB141B901229C5400F08EFA2046BDE868
:10113C001040FFF78ABF10BDE01D002010B5C4B2EF
:10114C000921204600F0C6FA40F00102D2B2204636
:10115C000921BDE8104000F0A3BA10B5C4B20921B2
:10116C00204600F0B7FA092100F0FE022046BDE847
:10117C00104000F095BA38B5C5B20C4628460A2185
:10118C0000F0A8FA40EA0402D2B228460A21BDE8CF
:10119C00384000F085BA10B5044600F057FA2046E6
:1011AC001F21FFF7E8FF2046BDE81040FFF7C6BF40
:1011BC0038B5C5B20C4628460A2100F08BFA20EA55
:1011CC000402D2B228460A21BDE8384000F068BAC1
:1011DC0010B50446FFF7C1FF20461F21BDE81040A3
:1011EC00FFF7E6BF10B5C0B20C460B2100F072FA47
:1011FC00204010BD1F21FFF7F5BF0A46C0B20B21DE
:10120C0000F04EBA1F21FFF7F8BF38B5C5B20C4637
:10121C002846172100F05EFA20EA0402D2B22846D2
:10122C001721BDE8384000F03BBA70B5C4B2064691
:10123C000421204600F04EFA042100F0FB02054682
:10124C00204600F02DFA3046F021FFF7DEFF05F0C6
:10125C00F8022046042100F023FA492220212046DE
:10126C0000F01EFA022000F067FA2046012221212C
:10127C0000F016FA20469A22412100F011FA20467D
:10128C0001224A2100F00CFA204601224B2100F0E9
:10129C0007FA204600224B2100F002FA20460122D8
:1012AC00562100F0FDF920460122582100F0F8F9F2
:1012BC0020460122402100F0F3F92046FF220B21A9
:1012CC0000F0EEF90220BDE8704000F035BA0000E5
:1012DC0010B5214C88B0204602F049FB002838D1CB
:1012EC001E4B23601823E3610723E3624FF4007362
:1012FC00A3614FF482736360194B0190A06060612D
:10130C002061A062E060206260625A6C42F480123C
:10131C005A645A6C02F480120192019A02901A6B70
:10132C00104842F020021A631B6B03F02003029357
:10133C00029B4FF4607303930223049305930123E0
:10134C00069303A90523079300F036FD204602F00F
:10135C000DFA08B010BD00BFE41D00200050014084
:10136C00003802400014024070B5334E88B030464D
:10137C0001F088FA044600285BD1304A304B314DDD
:10138C00009086E80C004FF48043B060F060706110
:10139C00B061F061306233612B6B43F004032B635B
:1013AC002B6B03F004030093009B01902B6B43F019
:1013BC0001032B632B6B059003F001030193019B3D
:1013CC0021484FF480730393122304930223069352
:1013DC0003A90423079300F0EFFC4FF4007303A957
:1013EC001A48039300F0E8FC02942B6C43F40003BE
:1013FC002B642B6C03F400030293029B2B6A43F4C3
:10140C0000032B622B6A23F400032B622246214635
:10141C00482000F079FB482000F0AAFB2246214628
:10142C00492000F071FB492000F0A2FB304601F08E
:10143C0027F808B070BD00BF88210020005C004078
:10144C00A086010000380240000002400008024063
:10145C0008B5034801F082F8BDE80840FFF784BFE7
:10146C008821002007B5094B02A91B6821F8020D41
:10147C000122074802F0CEF920B1054802F0B4F978
:10148C00FFF726FF03B05DF804FB00BF4C00002003
:10149C00E41D002010B586B050B9184B00901A6BA3
:1014AC0042F001021A631B6B03F001030093009BD3
:1014BC0061B901230193022303930493104B02910E
:1014CC0053F8200001A900F077FC14E0012912D197
:1014DC000C4B02930A4B019153F82000002401A9F4
:1014EC00039400F069FC062022460F2100F00CFB4F
:1014FC00062000F03DFB06B010BD00BF00380240D6
:10150C00500000200000111008B5034B012153F8C6
:10151C00200000F0E3FD08BD50000020F0B5294B81
:10152C001D7889B0002D4AD1274C009501261E70DC
:10153C00236B264843F008032363236B049603F0C4
:10154C00080300930227009B05954FF4005303A951
:10155C000393069700F030FC0195236B1B4843F076
:10156C0008032363236B049603F008030193019B88
:10157C0005954FF4805303A90393069700F01CFCC8
:10158C000295236B124843F004032363236B0496E8
:10159C0003F004030424029303A9029B039405950E
:1015AC00069700F009FC2A462146094800F09CFDEC
:1015BC0032462146064800F097FDFFF789FE09B038
:1015CC00F0BD00BF3C1E002000380240000C024061
:1015DC000008024038B50B4C054601224FF400516F
:1015EC00094800F081FD00220421204600F07CFD1A
:1015FC002846FFF737FF204601220421BDE838407A
:10160C0000F072BD00080240000C024038B50B4CD3
:10161C00054600224FF40051094800F065FD0022F8
:10162C000421204600F060FD2846FFF71BFF2046F2
:10163C0001220421BDE8384000F056BD00080240EC
:10164C00000C024000F040BAFFF78EBE10B586B019
:10165C000024104B00941A6B0F4842F001021A63DD
:10166C001B6B049403F001030093009B4FF40043A5
:10167C0001930123039301A9084B029300F09CFBF7
:10168C0022462146282000F03FFA282000F070FA6C
:10169C0006B010BD003802400000024000002110CE
:1016AC0010B586B006AC094B04F8012D1B680293EB
:1016BC0001230A46019301460094054800F068FF97
:1016CC0008B1FFF7C5FE06B010BD00BF54000020E6
:1016DC00882100207FB506AA002302F8013D094BA2
:1016EC001B68029301238DE80C000A46014606484C
:1016FC0000F0D2FF08B1FFF7ABFE9DF8170007B062
:10170C005DF804FB54000020882100201FB5084C14
:10171C0024688DE81C000A4601230146054800F0A8
:10172C00BBFF10B1FFF794FE012004B010BD00BF49
:10173C00540000208821002000F0C6B92DE9F347A1
:10174C00234C244D01264FF00008082721468246E1
:10175C004FF6FF722846CDF8048084E8C000A660DE
:10176C00C4F80C8001F081FF304600F0ADF9022383
:10177C0021464FF6FF72284684E888004FF0040992
:10178C00A660C4F80C8001F070FF032321464FF6CD
:10179C00FF72284684E88800C4F80890C4F80C80CE
:1017AC0001F063FF4FF40C730193019BE3604FF660
:1017BC00FF7221462846C4F800906760A66001F0CD
:1017CC0054FF5146284601F067FF02B0BDE8F08790
:1017DC00401E0020CC1E00202DE9F0416C4E6D4FB8
:1017EC006D4B33600423BB60F360102333614023E3
:1017FC0073614FF4C073B3614FF400638EB0336206
:10180C004FF4005300240222B3624FF00108634BE3
:10181C003A6007213A617A61BA6101947960F960A2
:10182C00C6F80480B460F4617462996B5C4841EA58
:10183C0008019963996B01EA0801019101990294DD
:10184C00196B41F480011963196B01F48001029149
:10185C0002990394196B11431963196B114003918D
:10186C0003990494196B41F004011963196B01F08D
:10187C000401049104990594196B41F00801196352
:10188C00196B01F00801059105990694196B41F04B
:10189C0010011963196B01F0100106910699079458
:1018AC00196B41F020011963196B01F020010791AC
:1018BC0007990894196B41F0400119631B6B0A924C
:1018CC0003F0400308930EAD089B0C920C230D9370
:1018DC00602345F8143D29460B9400F06DFA294617
:1018EC003048CDF8248000F067FA4CF20373294697
:1018FC002D48099300F060FA4FF6837329462B4864
:10190C00099300F059FA4FF63F03294628480993EA
:10191C0000F052FA294648F23313264D2648099313
:10192C0000F04AFA8023AB604FF40073EB604FF485
:10193C0080632B614FF480536B614FF48043AB6138
:10194C004FF400332B620323AB6228461B4B2B60F6
:10195C006C60EC616C62EC622C633563AE6300F01E
:10196C00C7F9284600F04EF922462146382000F0EF
:10197C00CBF8382000F0FCF83946304601F055FE23
:10198C0040F26A50FFF7DAFE0EB0BDE8F08100BFFE
:10199C00CC1E0020501E0020400100A00038024048
:1019AC000004024000080240000C024000100240FB
:1019BC00001402406C1E002000180240106402400B
:1019CC0038B50C4B0C4C18800C4B8220198063687A
:1019DC00984740F6110398420AD1094D23682C60B0
:1019EC00822098472B688220DB689847002038BDFE
:1019FC00012038BD041F002024000020061F0020F9
:101A0C00001F00200F49D1F8883043F47003C1F84F
:101A1C0088300D4B1A68002042F001021A60986061
:101A2C001A6822F0847222F480321A60074A5A60D3
:101A3C001A6822F480221A60D8604FF000638B6021
:101A4C00704700BF00ED00E0003802401030002469
:101A5C0010B5084B044618684FF47A73B0FBF3F0DA
:101A6C0000F092F8002221464FF0FF3000F04CF8C5
:101A7C00002010BD5800002008B50B4B1A6842F42A
:101A8C0000721A601A6842F480621A601A6842F492
:101A9C0080721A60032000F025F80020FFF7D8FFB1
:101AAC00FEF7CEFF002008BD003C0240024A13683E
:101ABC0001331360704700BFDC210020014B186814
:101ACC00704700BFDC21002013B50190FFF7F6FF33
:101ADC000446FFF7F3FF019B001B9842F9D302B0B9
:101AEC0010BD0000074AD36823F4E0631B041B0CF1
:101AFC0043F0BF63000243F4003300F4E06003439F
:101B0C00D360704700ED00E0174BDB68C3F3022392
:101B1C0030B5C3F107041D1D042C28BF0424062D69
:101B2C004FF0010505FA04F404F1FF348CBF033BBC
:101B3C0000230C409C4005FA03F3013B1A4000289B
:101B4C0042EA04024FEA0212AFBF00F1604000F01B
:101B5C000F00064BD2B2A5BF00F56140D2B21A54A9
:101B6C0080F8002330BD00BF00ED00E014ED00E074
:101B7C004209012300F01F0003FA00F0014B43F867
:101B8C002200704700E100E00138B0F1807F0AD2FA
:101B9C00064B074A5860F02182F8231000200722D8
:101BAC0098601A6070470120704700BF10E000E099
:101BBC0000ED00E0044B1A6804280CBF42F004024C
:101BCC0022F004021A60704710E000E0704708B57C
:101BDC00FFF7FCFF08BD00000368DAB223F47F7343
:101BEC0023F003031821103AB2FBF1F20449032A43
:101BFC0088BF0433895C8365C165806D704700BF05
:101C0C00C39B000870B50446FFF758FF0546002C2F
:101C1C0064D0002384F834302268022384F83530F1
:101C2C00136823F00103136021680B68D80708D5EB
:101C3C00FFF744FF401B0528F6D9202363650320DA
:101C4C0051E00B68294A6568A0691A40A3681D43D6
:101C5C00E3681D4323691D4363692B43E569034313
:101C6C002B43256A2B431343626A042A01BF256B5D
:101C7C00E66A35432B430B604B69042A23F00703B8
:101C8C0043EA02031CD1A26A134320B9012A0BD0E8
:101C9C0013D3022A10E0B0F5005F0AD1032A0FD843
:101CAC00DFE802F01E0B1E02E26AB2F1C07F07D120
:101CBC0016E0022A14D9032A02D1E26AD2010FD407
:101CCC004B612046FFF788FFE26D3F239340836012
:101CDC0000200123606584F8353070BD012070BD93
:101CEC0040236365012084F8350070BD3F8010F0FF
:101CFC0038B50546E8B190F83540E4B2022C1AD05C
:101D0C0003681A6822F001021A60002421221C6068
:101D1C005C609C60DC601C615A61FFF75DFFEA6DE2
:101D2C003F23934083606C6585F8344085F83540DB
:101D3C0001E0012038BD204638BD90F83530022B2B
:101D4C0003D080234365012070470268052380F887
:101D5C003530136823F0010313600020704710B571
:101D6C00044630B390F8393003F0FF021BB980F809
:101D7C00382002F031FA022384F8393023681A68CB
:101D8C0022F4403162680A431A605A6B22F0070150
:101D9C00A2680A435A631A6CE16822F47F5222F05B
:101DAC003F020A431A6400200123E06384F83930AF
:101DBC0010BD012010BD00002DE9F04F704F0B68D5
:101DCC00DFF8C4C1DFF8C48185B000220193BE46A0
:101DDC000124019B944034EA030340F0C9804D6810
:101DEC0025F0100ABAF1020F14D14FEAD20900EB18
:101DFC00890902F0070BD9F820604FEA8B0B0F23EF
:101E0C0003FA0BF326EA03060B6903FA0BF33343CD
:101E1C00C9F820304FEA420B4FF00309036809FA66
:101E2C000BF96FEA090905F0030603EA090306FA40
:101E3C000BF60AF1FF3A3343BAF1010F03600FD8E6
:101E4C008368CE6809EA030306FA0BF61E43866024
:101E5C004368C5F3001623EA0403964033434360FA
:101E6C00C36809EA03098B6803FA0BF343EA090315
:101E7C00C360EB007CD500230393DCF84460414B3A
:101E8C0046F48046CCF84460DCF8446022F0030948
:101E9C0009F1804906F4804609F59C39039602F055
:101EAC00030A039ED9F808B04FEA8A0A0F2606FAED
:101EBC000AF698422BEA060624D003F58063984272
:101ECC0022D003F58063984220D003F580639842BA
:101EDC001ED003F5806398421CD040451CD003F5FE
:101EEC00006398421AD003F58063984218D003F52A
:101EFC008063984216D003F58063984214BF0A237E
:101F0C00092310E000230EE001230CE002230AE079
:101F1C00032308E0042306E0052304E0062302E083
:101F2C00072300E0082303FA0AF33343C9F8083007
:101F3C003B68E64315F4803F0CBF33402343CEF897
:101F4C000030DEF8043015F4003F0CBF334023435F
:101F5C007B60BB6815F4801F0CBF33402343CEF865
:101F6C000830DEF80C30AD0254BF33402343FB6025
:101F7C000132102A7FF42CAF05B0BDE8F08F00BF02
:101F8C00003C0140000002400038024000140240B6
:101F9C002DE9F04F4D4CDFF83CA1DFF83CB10022AD
:101FAC004FF0010909FA02F535EA010340F0878088
:101FBC00032302FA09F6076803FA06F6F64322FA37
:101FCC0003FC374000EB8C0C076002F0070EDCF8CA
:101FDC0020800F274FEA8E0E07FA0EFE28EA0E0E0F
:101FEC00CCF820E0D0F808E006EA0E0EC0F808E0C5
:101FFC00D0F804E0ED430EEA050EC0F804E0D0F88A
:10200C000CE006EA0E06C66022F0030606F18046D6
:10201C0006F59C3602EA030E2D4BD6F808C04FEAA3
:10202C008E0E07FA0EF798420CEA070C22D003F535
:10203C008063984220D003F5806398421ED003F54C
:10204C00806398421CD003F5806398421AD003F544
:10205C008063984218D0504518D0584518D003F5D5
:10206C004063984216D003F5806398420CBF092355
:10207C000A2310E000230EE04B460CE002230AE09A
:10208C00032308E0042306E0052304E0062302E012
:10209C00072300E0082303FA0EF39C450FD1B36825
:1020AC0023EA0707B76023682B40236063682B4043
:1020BC006360A3682B40A360E3681D40E5600132B8
:1020CC00102A7FF46DAFBDE8F08F00BF003C0140DB
:1020DC000000024000180240001C02400369194233
:1020EC0014BF01200020704702B9090481617047B8
:1020FC0043695940416170470268536913F4806326
:10210C000DD06FF4806353610423036420220023F9
:10211C00036380F83C3080F83D200120704718465E
:10212C0070472DE9F843089C05460E4690461F461D
:10213C00C1F307492B68B9F1010F0CBF58699869B5
:10214C00C04380B230420CBF01230023434512D15F
:10215C007B1CEFD04FB9002320222B6385F83C3039
:10216C0085F83D200320BDE8F883FFF7A7FC001B92
:10217C008742DFD2EFE70020BDE8F8832DE9F84372
:10218C0004460E4617469946C1F307482568B8F130
:10219C00010F0CBF6869A869C04380B2304214BFFC
:1021AC000120002048B36B695A0512D52B6843F403
:1021BC0000732B606FF480636B6104232364202213
:1021CC000023236384F83C3084F83D200120BDE8D3
:1021DC00F8837B1CDAD04FB900232022236384F8C8
:1021EC003C3084F83D200320BDE8F883FFF766FC03
:1021FC00C9EB00008742C9D2EEE7BDE8F88370B5A1
:10220C0004460D46164623685B695B0719D42046C5
:10221C00FFF772FFB8B96A1CF5D065B9236C43F0AF
:10222C002003236420220023236384F83C3084F8A9
:10223C003D20032070BDFFF741FC801B8542E2D29C
:10224C00ECE7002070BD012070BD70B504460D4652
:10225C0016462068436913F0400321D14269D20627
:10226C000BD56FF0100242612022236484F83C30BD
:10227C002363012084F83D2070BD5DB9236C43F0CD
:10228C0020032364202384F83D30002384F83C3061
:10229C00032070BDFFF712FC801B8542D9D2EDE7FD
:1022AC00002070BD70B504460D46164623685B6968
:1022BC001B0619D42046FFF71FFFB8B96A1CF5D0CE
:1022CC0065B9236C43F0200323642022002323638D
:1022DC0084F83C3084F83D20032070BDFFF7EEFB02
:1022EC00801B8542E2D2ECE7002070BD012070BD5E
:1022FC002DE9FF41154602680B9E9846136843F47E
:10230C00807313600F4600960A9B00224FF0011158
:10231C000446FFF706FF68B923680A9A1B4907F0C1
:10232C00FE071F6120463346FFF728FF20B1236CC0
:10233C00042B27D0032026E0236803905A690392CC
:10234C009B69039332460A99039B2046FFF7AAFF29
:10235C0058B9B8F1010F236811D02A0A1A610A99E9
:10236C0032462046FFF79EFF40B1236C042BE1D18F
:10237C002268136843F40073136003E02368EDB222
:10238C001D6100E0012004B0BDE8F08102000100F5
:10239C002DE9FF41984603680B9D16461A6842F4D6
:1023AC0080621A601A6842F480721A600F460095B7
:1023BC000A9B00224FF001110446FFF7B2FE0028E1
:1023CC0036D123682D49FFB207F0FE021A61204670
:1023DC002B460A9AFFF7D2FE18B1236C042B27D197
:1023EC0030E0236803905A6903929B6903932A4651
:1023FC000A99039B2046FFF755FFD8B9B8F1010F96
:10240C00236821D1F6B21E612A460A992046FFF7AD
:10241C0049FF024670B921680B6843F480730B6066
:10242C00204600950A9B4FF00111FFF77AFEB0B1E0
:10243C00032020E0236C042BFAD12268136843F4A8
:10244C0000731360012016E0320A1A610A992A46B9
:10245C002046FFF727FF0028ECD12368D2E723683A
:10246C000A9A064947F001071F6120462B46FFF7E1
:10247C0085FE0028B1D104B0BDE8F0810200010056
:10248C0070B50446002863D090F83D3003F0FF028D
:10249C001BB980F83C20FEF709FB22682D4D242344
:1024AC0084F83D30136823F00103136000F008FF3B
:1024BC00636822682849B0FBF1F1AB422E4688BF15
:1024CC004FF49675516082BF69434FF47A75B1FB36
:1024DC00F5F1B34201F10101116208D85B00B0FBC8
:1024EC00F3F0C0F30B03032B98BF042016E0A16894
:1024FC0049B903EB4303B0FBF3F0C0F30B0363B137
:10250C0040F400400AE019214B43B0FBF3F0C0F358
:10251C000B0313B140F4404000E00120E169236A51
:10252C00D0610B4313602169E3680B4393606169CD
:10253C00A3690B43D360136843F0010313600020BD
:10254C002023206484F83D30206384F83E0070BD65
:10255C00012070BDA086010040420F0010B504465A
:10256C0098B10268242380F83D30136823F00103EE
:10257C001360FEF7D3FA0020206484F83C0084F842
:10258C003D00206384F83E0010BD012010BD00000A
:10259C002DE9F04F044685B09B46039192460E9F61
:1025AC00BDF83C60FFF78AFA94F83D30202B80464A
:1025BC0001D0022069E00090192301223449204601
:1025CC00FFF7AFFD81460028F3D194F83C30012B86
:1025DC00EFD0226803991368012523F4006384F873
:1025EC003C501360212384F83D30402384F83E3066
:1025FC00284B2064E362109B0093CDF804805B466B
:10260C0052462046FFF774FEB8B1236C84F83C9018
:10261C00042B01D1284638E0032036E0FFF742FEB8
:10262C0088B922683B7813615069731E400707F123
:10263C0001019BB211D41E460F464246109920460A
:10264C00002EEBD111E0236C042BE5D1226813682A
:10265C0043F400731360012017E0002BEBD07B7860
:10266C001361023EB91CB3B2E5E7FFF7C8FD0028C1
:10267C00E9D12268136843F400731360202384F8B3
:10268C003D3084F83C6084F83E6005B0BDE8F08FC6
:10269C00020010000000FFFF2DE9F04F044689B046
:1026AC009B4602910392129EBDF84C50DDF850806F
:1026BC00FFF704FA94F83D30202B074602D04FF078
:1026CC00020BD5E00090192301226B492046FFF73D
:1026DC0028FD81460028F2D194F83C30012BEED035
:1026EC002268029913684FF0010A23F4006384F8FE
:1026FC003CA01360222384F83D30402384F83E3004
:10270C005E4B20640197E362CDF800805B46039A30
:10271C002046FFF73DFE834630B1236C84F83C9095
:10272C00042B43D1D346A3E0236855B904905A69CE
:10273C0004929A690492049A1A6842F400721A601C
:10274C008EE0012D0ED11A6822F480621A60059079
:10275C005A6905929A690592059A1A6842F40072B0
:10276C001A6016E0022D0ED11A6822F480621A60EB
:10277C001A6842F400621A6006905A6906929B69C4
:10278C000693069B05E007905A6907929B6907938D
:10279C00079B032D4AD8012D12D13A4641462046BB
:1027AC00FFF753FD40B1236C202B02D14FF0030BEC
:1027BC005EE04FF0010B5BE023681B6933704FE068
:1027CC00022D009743464FF000022D4920460ED1B2
:1027DC00FFF7A7FC0028E9D123681A6842F40072BD
:1027EC001A601B69337023681B69737038E0FFF73C
:1027FC0098FC02460028D9D12368196821F480611D
:10280C0019601B6933701E49009743462046FFF739
:10281C0088FC0028CAD123681A6842F400721A6036
:10282C001B69737023681B69B37019E03A46414603
:10283C002046FFF70AFD0028B5D123681B693370C9
:10284C0023685A69520751BF05F1FF35023D1B69D8
:10285C00737055BFADB2ADB201360236002D98D1B2
:10286C00202384F83D30002384F83E3084F83C303B
:10287C00584609B0BDE8F08F020010000000FFFFC1
:10288C000400010090F83D0070472DE9F043046806
:10289C004F68E568D1F800C004F1840ED20102EB58
:1028AC000E03C5F30B45586800F470405860E0689F
:1028BC00EE19C0F30B400CF10105284440EA064028
:1028CC005860E068CD68C0F30A00461998688D68B6
:1028DC0000F470409860E468681CC4F30A04204457
:1028EC0040EA0640986018690E698D6920F007006F
:1028FC0018614FF000081E61986991F8314091F809
:10290C003290C3F8188091F8300040EA056545EA2A
:10291C00042444EA09449C61586920F0FF00586182
:10292C0048695861D86920F4E06020F00700D8614C
:10293C00CD690C6A2C43DC61986A486AC3F828801C
:10294C0098624EB1012E09D0B01E022808D9072E6C
:10295C000CBF0220012004E0042002E0032000E070
:10296C000220DC6A04F0E024DC628C6AC96ACCEBDD
:10297C00070744437843033040EA0440D862186B9D
:10298C0020F4FF6020F007001863196352F80E3032
:10299C0043F0010342F80E30BDE8F08338B504462D
:1029AC0000286AD090F8A13003F0FF021BB980F820
:1029BC00A02001F023FC022384F8A13023689A693B
:1029CC0022F070429A61996962681143A2681143BE
:1029DC00E268114322690A439A619968284A0A40BD
:1029EC009A609868A2696169024342EA01429A605E
:1029FC00D968234A0A40DA60D868226AE16902433E
:102A0C0042EA0142DA6019691D4A0A401A611869E2
:102A1C00A26A616A024342EA01421A615969184A80
:102A2C000A405A615869E16A226B024342EA014248
:102A3C005A61D96A94F8360094F8352001F07F4138
:102A4C00D962D96A94F83450294341EA022242EA05
:102A5C000042DA625A6B42F004025A635A6B42F03B
:102A6C0002025A639A6942F001029A610020012322
:102A7C00C4F8A40084F8A13038BD012038BD00BFD3
:102A8C0000F800F010B5044601F05AFC0020C4F820
:102A9C00A40084F8A00084F8A10010BD7047704712
:102AAC0003689A6B510710B5044615D59A6B5207FB
:102ABC0012D55A6B22F004025A630422DA63D0F85E
:102ACC00A43043F00103C0F8A430002380F8A12007
:102ADC0080F8A030FFF7E2FF23689A6B900716D5B9
:102AEC009A6B910713D55A6B22F002025A63022299
:102AFC00DA63D4F8A4301343C4F8A430042384F864
:102B0C00A130002384F8A0302046FFF7C7FF2368CC
:102B1C009A6BD20710D59A6BD0070DD55A6B22F051
:102B2C0001025A630122DA63002384F8A12084F89D
:102B3C00A030204601F010FC23689A6B110711D5C8
:102B4C009A6B12070ED55A6B22F008025A630822B0
:102B5C00DA63012384F8A130002384F8A0302046E6
:102B6C00FFF79DFF10BDF8B590F8A030012B06467D
:102B7C008E4694464FF002001DD0012786F8A070B7
:102B8C0086F8A10034240D4604FB02640FCD3834C2
:102B9C000FC40FCD0FC40FCD0FC42B68236030466C
:102BAC0062467146FFF771FE336800205F6286F85B
:102BBC00A17086F8A000F8BD90F8A030012B10B5DC
:102BCC004FF0020312D0046880F8A13004F18403A2
:102BDC0003EBC212D36803F07F43D3600123D160AF
:102BEC00636280F8A130002380F8A030184610BD35
:102BFC00F0B590F8A040012C4FF002042ED0012526
:102C0C0080F8A050342580F8A140DF01002405FB9A
:102C1C00030394421AD09D6C062D51F8245015BF15
:102C2C0031F8246004EB041605F47F0525F07F458C
:102C3C0014BF354345EA0665066806F184063E4432
:102C4C0018BF45EA046535640134E2E7012380F8D6
:102C5C00A130002380F8A0301846F0BD2046F0BD0E
:102C6C0090F8A030012B10B54FF0020310D0026881
:102C7C0080F8A13002F18404C901635843F00203C7
:102C8C0063500123536280F8A130002380F8A030F8
:102C9C00184610BD90F8A030012B10B54FF0020370
:102CAC0010D0026880F8A13002F18404C901635885
:102CBC0023F0020363500123536280F8A1300023F8
:102CCC0080F8A030184610BD90F8A030012B10B53C
:102CDC004FF0020310D0026880F8A13002F1840496
:102CEC00C901635843F0100363500123536280F809
:102CFC00A130002380F8A030184610BD2DE9F0411A
:102D0C00174690F8A020012A05464FF0020420D067
:102D1C0080F8A14034245C4306194FF0010880F878
:102D2C00A080326EB1631144726EF163376404F1AA
:102D3C003801174401441A467764FFF7A6FD2B6847
:102D4C000020C3F8248085F8A18085F8A000BDE898
:102D5C00F0812046BDE8F08190F8A030012B70B5D1
:102D6C004FF00203044615D080F8A13034235343AE
:102D7C00C618012580F8A050F16403F13801014414
:102D8C00FFF783FD236800205D6284F8A15084F86E
:102D9C00A00070BD184670BD90F8A030012B70B526
:102DAC004FF00203044615D080F8A130342353436E
:102DBC00C618012580F8A050F16503F138010144D3
:102DCC00FFF763FD236800205D6284F8A15084F84E
:102DDC00A00070BD184670BD90F8A030012B4FF0CC
:102DEC0002030ED0026880F8A130536B43F001034C
:102DFC005363054B1964012380F8A130002380F83C
:102E0C00A0301846704700BF0068014003682DE9E8
:102E1C00F3410446D80703D42368990737D487E0D5
:102E2C00A74B9A6802F00C02042A07D09A6802F0A9
:102E3C000C02082A0BD15B685A0208D5A04B1B6800
:102E4C009B03E9D56368002BE6D1012034E19D4B4F
:102E5C0022791A7063686BB1FEF730FE984D064606
:102E6C002B689F03D8D4FEF729FE801B6428F7D962
:102E7C00032021E1FEF722FE914D06462B689803B4
:102E8C00CAD5FEF71BFE801B6428F7D9F0E78C4BE4
:102E9C009A6812F00C0F07D09A6802F00C02082AFC
:102EAC0017D15B68590214D4854B1A68920702D566
:102EBC00E268012AC9D11A68F82191FAA1F12069B6
:102ECC00B1FA81F100FA01F122F0F8020A431A601A
:102EDC002EE0E2687C4BEAB101221A60FEF7EEFDAF
:102EEC00774D06462B6876489B0705D4FEF7E6FD22
:102EFC00801B0228F6D9BBE70368F82292FAA2F2EB
:102F0C002169B2FA82F201FA02F223F0F8031343B8
:102F1C0003600DE01A60FEF7D1FD694D06462B6883
:102F2C009F0705D5FEF7CAFD801B0228F7D99FE73E
:102F3C0023681E0703D423685D0745D51FE062692B
:102F4C00624B72B101221A60FEF7B8FD5C4D064669
:102F5C006B6F9807EFD4FEF7B1FD801B0228F7D9F1
:102F6C0086E71A60FEF7AAFD554D06466B6F99076A
:102F7C00E1D5FEF7A3FD801B0228F7D978E70023E3
:102F8C0001934F4B524D1A6C42F080521A641B6CD9
:102F9C0003F080530193019B2B6843F480732B60E7
:102FAC00FEF78CFD06462B68DA0510D5494B227AC4
:102FBC001A70A368BBB1FEF781FD414D064641F284
:102FCC0088372B6F9B0708D5A269DAB959E0FEF751
:102FDC0075FD801B0228E6D94AE7FEF76FFD801BC2
:102FEC00B842EED944E7FEF769FD354D064641F28D
:102FFC0088372B6F9807E7D5FEF760FD801BB8422A
:10300C00F7D935E72E4DAB6803F00C03082B3FF4D2
:10301C001CAF314E0023022A336041D1FEF74EFD26
:10302C0080462B68264F99012DD447F6C07292FA30
:10303C00A2F24FF44033B2FA82FE93FAA3F34FF0AC
:10304C007062B3FA83F592FAA2F2E069236AB2FADB
:10305C0082F1626A034302FA0EF243EA0200A36AA7
:10306C005A08013A02FA05F3E26A03438A40134311
:10307C007B6001233360FEF721FD04463B689A0117
:10308C0008D5002018E0FEF719FDC8EB0000022857
:10309C00C7D9EDE6FEF712FD001B0228EED9E7E6D4
:1030AC00FEF70CFD04462B689B01EAD5FEF706FDE6
:1030BC00001B0228F7D9DBE602B0BDE8F08100BFA7
:1030CC00003802400238024000004742800E47425E
:1030DC000070004070380240600047421B498B680A
:1030EC0003F00C03042B2CD0082B2CD148684B6814
:1030FC0000F03F0013F4800F47F6C0724B6892FA51
:10310C00A2F247F6C071B2FA82F201EA030121FA87
:10311C0002F114BF0E4A0F4AB2FBF0F00B4A00FB4F
:10312C0001F352684FF4403090FAA0F002F44032B0
:10313C00B0FA80F022FA00F001304000B3FBF0F05E
:10314C007047034870470348704700BF003802407F
:10315C0000127A000024F400554B1A6802F00F029A
:10316C008A422DE9F04105460E460AD329688807A4
:10317C0011D55048836823F0F002AB681343836089
:10318C0009E0CAB21A701B6803F00F039942EDD024
:10319C000120BDE8F081C90706D4454B1A6802F03E
:1031AC000F02964251D357E06B68424A012B03D170
:1031BC00126812F4003F08E0991E0129126802D827
:1031CC0012F0007F01E012F0020FE1D0394CA2683E
:1031DC0022F003021343A360FEF770FC6B68012B13
:1031EC00074641F288380CD1A36803F00C03042B7A
:1031FC00D3D0FEF763FCC01B4045F5D90320BDE8D6
:10320C00F081022B0AD1A36803F00C03082BC4D065
:10321C00FEF754FCC01B4045F5D9EFE7032B0FD14B
:10322C00A36803F00C030C2BB7D0FEF747FCC01BB4
:10323C004045F5D9E2E7FEF741FCC01B4045DDD81F
:10324C00A36813F00C0FF6D1A7E7F2B21A701B6843
:10325C0003F00F039E429BD129684A0706D51548F7
:10326C00836823F4E052EB68134383600B0707D5A4
:10327C00104A2969936823F4604343EAC1039360BD
:10328C00FFF72CFF0B4BF0229B6892FAA2F2B2FADA
:10329C0082F203F0F003D340074AD35CD840074BCB
:1032AC0018600020FEF7D4FB0020BDE8F08100BFC1
:1032BC00003C024000380240CB9B00085800002024
:1032CC00084B4FF4E0529B6892FAA2F2B2FA82F2E7
:1032DC0003F4E053D340044AD35C044A1068D8404A
:1032EC00704700BF00380240CB9B000858000020FC
:1032FC00084B4FF460429B6892FAA2F2B2FA82F247
:10330C0003F46043D340044AD35C044A1068D840A9
:10331C00704700BF00380240CB9B000858000020CB
:10332C002DE9F34103689A07044605D1236813F08D
:10333C000C0F00F0D58057E0A54DA64E00232B6056
:10334C00FEF7BCFB074633681B0106D5FEF7B6FB40
:10335C00C01B0228F7D9032037E12068C70714D512
:10336C0047F6C07191FAA1F14FF0E043B1FA81F147
:10337C0093FAA3F3B3FA83F2636803FA01F1A36837
:10338C009340944A0B43C2F8843086071DD5914E66
:10339C004FF0E043D6F8841093FAA3F3B3FA83F01A
:1033AC00E36862681B0643EA821201F0E043C34003
:1033BC0042EA0373C6F88430D6F88C30E26923F005
:1033CC001F03013A1343C6F88C3001232B60FEF720
:1033DC0075FB804D06462B681801A7D4FEF76EFBD3
:1033EC00801B0228F7D9B6E77B4D7A4F00232B6060
:1033FC00FEF764FB80463B68764E9A0000F18880AD
:10340C0027687B0731D5D6F888204FF0E04191FA38
:10341C00A1FC47F6C078BCFA8CFC98FAA8F84FF0DF
:10342C00706EB8FA88F89EFAAEF0B0FA80FE91FA97
:10343C00A1F1206900FA08F3606902F0E04222FA77
:10344C000CF2B1FA81F100FA0EF0184302FA01F312
:10345C000343C6F88830D6F88C30226A23F4F8532C
:10346C00013A43EA0223C6F88C303E072FD5594F58
:10347C004FF07061D7F8882091FAA1FE47F6C07C16
:10348C00BEFA8EFE9CFAACFCBCFA8CFC91FAA1F153
:10349C004FF0E040B1FA81F190FAA0F02369B0FA54
:1034AC0080F6A06902F0706203FA0CF322FA0EF2B5
:1034BC00B040184302FA01F30343C7F88830D7F839
:1034CC008C3023F44032636A1343C7F88C300123E9
:1034DC002B60FEF7F3FA3F4D06462B6898001FD57C
:1034EC002368990668D5002301933A4B3B4D1A6C1F
:1034FC0042F080521A641B6C03F080530193019BC1
:10350C002B6843F480732B60FEF7D8FA064613E061
:10351C00FEF7D4FAC8EB000002287FF66CAF1AE76E
:10352C00FEF7CCFA801B0228D7D914E7FEF7C6FAAF
:10353C00801B02283FF60FAF2B68D905F6D5254D19
:10354C002B6F13F440730FD1A26A02F44073B3F5DE
:10355C00407F204B27D1996821F4F81022F070415C
:10356C0021F44071014321E0A26A02F440729342BB
:10357C00EAD02B6F1A4A0121116023F44073002109
:10358C0011602B672B6FDA07DED5FEF797FA41F245
:10359C00883706462B6F9B07D6D4FEF78FFA801B15
:1035AC00B842F7D9D7E6996821F4F8119960196FE8
:1035BC00C2F30B020A431A67206810F010001FBFF9
:1035CC00084B94F82C201A60002002B0BDE8F08162
:1035DC0068004742003802407000474200700040CB
:1035EC00400E4742E0114742704710B50446B8B14F
:1035FC000379012B16D001230371437903F0FF02E9
:10360C0013B90271FFF7F0FF22680223637113688C
:10361C0043F004031360002001236371207110BD7B
:10362C00012010BD022010BD704738B50D46044670
:10363C00C8B190F82C3003F0FF021BB980F82D2094
:10364C00FFF7F2FF022384F82C30211D206800F0D4
:10365C0013FC62682068294600F04FFC012384F8B3
:10366C002C30002038BD012038BD38B5044690F808
:10367C002C00C0B202280D460DD0022384F82C3049
:10368C00206800F086FC2B68022B0CBF052301235D
:10369C0084F82C30002038BD10B5044690F82C006E
:1036AC00C0B2022809D0022384F82C30206800F024
:1036BC0096FC012384F82C30002010BD2DE9F0413C
:1036CC00069E0446884617461D462268936838EACB
:1036DC0003030CBF012300239F4233D06B1CF5D096
:1036EC004DB923685A6822F0E0025A606268B2F55C
:1036FC00827F11D105E0FEF7E1F9801B8542E4D809
:10370C00EFE7A268B2F5004F02D0B2F5806F03D19B
:10371C001A6822F040021A60A26AB2F5005F08D162
:10372C0019684DF6FF720A401A601A6842F400528A
:10373C001A60012384F85130002384F850300320A0
:10374C00BDE8F0810020BDE8F08113B50B46009276
:10375C00802100220446FFF7B1FF20B1636D43F0D6
:10376C0020036365032002B010BD704710B50446FA
:10377C00002836D00023836290F8513003F0FF020A
:10378C001BB980F85020FFF7F0FFA1686068084370
:10379C00E1680843216902230843616984F85130C8
:1037AC0023680843E1691A680843216A22F0400241
:1037BC001A600843A269A16A084302F4007101432C
:1037CC001960120C616A02F004020A435A60DA6949
:1037DC0022F40062DA6100200123606584F8513024
:1037EC0010BD012010BD704710B5044680B10268B1
:1037FC00022380F85130136823F040031360FFF765
:10380C00F2FF0020606584F8500084F8510010BD70
:10381C00012010BD2DE9FF411E4690F85030012BC0
:10382C0004460D46904600F09E80012380F85030EF
:10383C00FEF744F9074694F85100C0B2012840F055
:10384C008A80002D00F08880B8F1000F00F0848091
:10385C00032384F8513000236365A363A4F83680F6
:10386C00A387E38763642364A3682563B3F5004FE0
:10387C002368A4F8348002BF1A6842F480421A60AC
:10388C001A6852065EBF1A6842F040021A60E2687B
:10389C00B2F5006F62681ED172B1E28E92B2012A4B
:1038AC0003D109E0AEB1711C0ED1E38E9BB2D3B142
:1038BC0023689A689007F5D535F8022BDA60E38E09
:1038CC00013B9BB2E386F0E7FEF7F8F8C01B86429B
:1038DC00EBD8032040E0A2B1E28E92B2012A10D0C4
:1038EC00E38E9BB24BB9009733460122022120464E
:1038FC00FFF7E4FE0028ECD115E023689A689207E4
:10390C0007D515F8012B1A73E38E013B9BB2E386A6
:10391C00E6E7002EDDD0731CE2D0FEF7CFF8C01B1B
:10392C008642DDD8D5E73A4631462046FFF70DFFF3
:10393C0018B12023636501200EE0A36833B903930B
:10394C002368DA6803929B680393039B606D0030D5
:10395C0018BF012000E00220012384F8513000231D
:10396C0084F8503000E0022004B0BDE8F08190F8FB
:10397C00510070470368DA6822F49072DA605A6971
:10398C0022F001025A61202380F83A30704700007F
:10399C002DE9F04707683B69044623F44052C3689D
:1039AC00A168C069134322693B61FB6811436269DA
:1039BC0023F416430A43024323F00C031343FB6026
:1039CC007B6923F44072A369B0F5004F43EA02030C
:1039DC007B617C4B7CD19F4203D003F580639F427B
:1039EC0031D1FFF785FC636819254FEA430868431A
:1039FC00B0FBF8F8FFF77CFC666868437600B0FB18
:103A0C00F6F6FFF775FC63684FF064095B006843DA
:103A1C00B0FBF3F0B0FBF9F009FB1066FFF768FCA4
:103A2C00B8FBF9F86168F6003236B6FBF9F67600A9
:103A3C00684349004FEA081806F4F876B0FBF1FA2F
:103A4C00FFF756FC30E0FFF73BFC636819254FEAA3
:103A5C0043086843B0FBF8F8FFF732FC666868432C
:103A6C007600B0FBF6F6FFF72BFC63684FF06409A9
:103A7C005B006843B0FBF3F0B0FBF9F009FB106698
:103A8C00FFF71EFCB8FBF9F8F60061683236B6FB9E
:103A9C00F9F67600684349004FEA081806F4F87600
:103AAC00B0FBF1FAFFF70CFC454360684000B5FB36
:103ABC00F0F0B0FBF9F009FB10A2D2003232B2FBED
:103ACC00F9F303F0070343441E44BE60BDE8F087DE
:103ADC009F4202D03C4B9F4230D1FFF709FC6368F8
:103AEC0019254FEA83086843B0FBF8F8FFF700FC90
:103AFC0066686843B600B0FBF6F6FFF7F9FB63683F
:103B0C004FF064099B006843B0FBF3F0B0FBF9F095
:103B1C0009FB1066FFF7ECFBB8FBF9F8616836019E
:103B2C00684389004FEA08183236B0FBF1FAB6FB4D
:103B3C00F9F606F0F006FFF7DBFB2FE0FFF7C0FB12
:103B4C00636819254FEA83086843B0FBF8F8FFF760
:103B5C00B7FB66686843B600B0FBF6F6FFF7B0FB40
:103B6C0063684FF064099B006843B0FBF3F0B0FB53
:103B7C00F9F009FB1066FFF7A3FBB8FBF9F86168D5
:103B8C00360132366843B6FBF9F689004FEA08185D
:103B9C0006F0F006B0FBF1FAFFF792FB45436068C4
:103BAC008000B5FBF0F0B0FBF9F009FB10A212019C
:103BBC003232B2FBF9F303F00F0333444344BB60DE
:103BCC00BDE8F087001001400014014010B5044618
:103BDC0040B390F8393003F0FF021BB980F838205D
:103BEC00FCF73AFF2268242384F83930D36823F495
:103BFC000053D3602046FFF7CBFE23681A6922F4EA
:103C0C0090421A615A6922F02A025A61DA6842F427
:103C1C000052DA6000202023E06384F8393084F805
:103C2C003A3010BD012010BD90F83930202B18D13E
:103C3C00A9B1A2B190F83830012B12D00162828464
:103C4C00C28400230168C363212280F83920CA682A
:103C5C0080F8383042F08002CA6018467047012064
:103C6C0070470220704790F83A30202B1CD1C9B114
:103C7C00C2B190F83830012B16D08285C285002352
:103C8C002222C36380F83A2002688162516980F86D
:103C9C00383041F001015161D16841F49071D1602B
:103CAC0018467047012070470220704790F83A3050
:103CBC00222B10B532D1836801690268B3F5805F9D
:103CCC00836A0BD1526821B9C2F3080223F8022B84
:103CDC0002E0D2B223F8012B83620AE019B9591C15
:103CEC008162526804E05268591C816202F07F02C2
:103CFC001A70C48D013CA4B2C4858CB90368DA680F
:103D0C0022F49072DA605A6922F001025A6120237F
:103D1C0080F83A30FCF73AFC204610BD022010BD6A
:103D2C00002010BD7047000003681A68D96870B590
:103D3C00160704465D6907D196065AD58D0658D5E7
:103D4C00BDE87040FFF7B2BF15F0010002D111F4CD
:103D5C00907F4ED0D30705D5CE0542BFE36B43F021
:103D6C000103E363550704D518B1E36B43F0020379
:103D7C00E363930704D518B1E36B43F00403E363E7
:103D8C00160704D518B1E36B43F00803E363E36B48
:103D9C00002B66D0950604D5880602D52046FFF781
:103DAC0085FF23685B69E26B1107204602D413F090
:103DBC0040051AD0FFF7DEFD23685A69520610D56C
:103DCC005A69606B22F040025A6150B1254B036571
:103DDC00FDF7B3FF002844D0606BBDE87040036D65
:103DEC0018472046FFF79EFF70BDFFF79BFFE5636A
:103DFC0070BD160627D50D0625D594F83920212A35
:103E0C002FD1A268B2F5805F226A0AD11188C1F362
:103E1C0008015960216909B9023200E001322262BD
:103E2C0003E0511C216212785A60E28C013A92B282
:103E3C00E284B2B9DA6822F08002DA60DA6842F021
:103E4C004002DA6070BD50060BD54A0609D5DA6817
:103E5C0022F04002DA60202384F839302046FCF747
:103E6C00A5FB70BD753E000808B5806B0023C385AB
:103E7C00C384FFF757FF08BD0B680A6A012B2DE9B5
:103E8C00F0478B68D1F804E0CF680E694D698C69F6
:103E9C00D1F81CA0D1F82490016813D04EEA030E7F
:103EAC004EEA07073E4335432C4321F4FF4844EACE
:103EBC000A010A4328F07F0842EA090343EA08038F
:103ECC00036017E04AEA02024EEA030E42EA0909CD
:103EDC004EEA070742683E4322F4FF4C354321F477
:103EEC00F8412CF07F0C2C4349EA010144EA0C0404
:103EFC00016044600020BDE8F087F0B5012A01F1B3
:103F0C0004040E680A69D1F814E08B69876894E898
:103F1C00301019D0013E07F07047013C374347EA97
:103F2C000416013D0CF1FF3146EA0525013A45EA3C
:103F3C00013444EA02410EF1FF3241EA0252013BE4
:103F4C0042EA0363836022E00EF1FF3E0CF1FF3185
:103F5C004FEA0E5C4CEA013E27F47007C16827F467
:103F6C0070474EEA070C013E01F0704E013C46EAE8
:103F7C000E0747EA04166C1E46EA0424013A44EA8A
:103F8C000242013B42EA0363C0F808C0C360002050
:103F9C00F0BD73B500230193044691E80900034377
:103FAC00C86843EA40208B68013B40EA4313019305
:103FBC00019B23611546FDF781FD0646A06910F0B3
:103FCC0020000AD06B1CF9D00DB9032005E0FDF7D9
:103FDC0075FD801B8542F1D2F7E702B070BD4369D5
:103FEC0043EA4101416100207047000008B50548D3
:103FFC004FF4003104F050F90348BDE8084003F0D9
:10400C00CFBC00BFE0210020649C000830B50C4CF4
:10401C004FF400752560E060E16303992161049918
:10402C0021649BB243EA02420021E161626423688D
:10403C0043F0010323602368DB07FCD430BD00BFD1
:10404C0000B00240F0B50E4E069F1C24604335189C
:10405C003058EC686E69059DC7EB040E05FB043502
:10406C0002FB0414CDF818E006FB0501CDF814E0B2
:10407C00079B3A4606FB0400BDE8F040FFF7C6BFBD
:10408C00481F00202DE9F843089D099F81460C46E6
:10409C001646984603F0B6FA012811D100221921D0
:1040AC00484602F04BFC4246314620462B4602F075
:1040BC0045FD48461D4A1921BDE8F84302F03EBCB7
:1040CC00C4EB08034FF01C0EDFF86C800EFB09FEEE
:1040DC0008EB0E0CAD1BDCF80C00DCF81020DCF847
:1040EC001490DCF808C0424309FB02F158F80E208A
:1040FC0000FB06440CFB012209FB042201350C4C8D
:10410C000C4921600133ADB2A763C01AE26345EAE2
:10411C0003450022206462636564236843F0010355
:10412C0023602368DB07FCD4BDE8F88391400008CA
:10413C0000B0024000020300481F0020F7B51C230A
:10414C000B4F58433C1816462369E26865693F5883
:10415C0003FB02FE05FB0EF505FB0170002101912E
:10416C00009105FB0671FFF751FFA66003B0F0BD8F
:10417C00481F00202DE9F0434FF01C0CDFF8548051
:10418C00079E0CFB00FC08EB0C091F46D9F80CE051
:10419C00D9F81040D9F81400D9F80890089B04FB02
:1041AC000EF400FB04F558F80C4002FB0E11C6EBA4
:1041BC000E0209FB054408920425099A92FBF5F2BC
:1041CC00921B079200FB014132463846BDE8F04392
:1041DC00FFF71CBF481F002082B000230193064B41
:1041EC001A6B42F400021A631B6B03F40003019375
:1041FC00019B02B0704700BF00380240F0B58DB093
:10420C00484B494F49484A4E002400945A6C42F09E
:10421C0080625A645A6C02F080620092009A019497
:10422C001A6B42F001021A631A6B02F0010201923E
:10423C00019A02941A6B42F002021A631A6B02F092
:10424C0002020292029A03941A6B42F004021A635D
:10425C001A6B02F004020392039A04941A6B42F054
:10426C0008021A631A6B02F008020492049A05946D
:10427C001A6B42F020021A631A6B02F020020592AC
:10428C00059A06941A6B42F040021A631B6B099450
:10429C0003F040030693069B41F6580307930E2543
:1042AC00022307A908930A930B95FDF785FD4FF49C
:1042BC00706307A938460793FDF77EFD4FF49863AA
:1042CC0007A91C480793FDF777FD482307A91A484F
:1042DC000793FDF771FD4FF4806307A91748079307
:1042EC00FDF76AFD4FF40C6307A930460793FDF701
:1042FC0063FD0323079307A9092338460B93FDF7A6
:10430C005BFD4FF4A05307A930460793FDF754FD0E
:10431C00224629465820FDF7F7FB5820FDF728FCCC
:10432C000DB0F0BD00380240000402400000024015
:10433C000018024000080240000C02400014024029
:10434C00044B5A6A42F080625A625A6A22F08062C6
:10435C005A6270470038024038B5114C6368002B24
:10436C00054617DBE26823696168534301FB03F2DE
:10437C006169236801FB02330268C2F8AC30536AEE
:10438C0043F0010353626168002003F00BF94FF016
:10439C00FF33636028460021BDE83840FEF71CBDA2
:1043AC00481F002070B5484C2046FEF76BFBFCF70D
:1043BC0003FD092363610123A3611D23E36140F223
:1043CC004313A36240F20D13636240F247133F485C
:1043DC00236340F21713E36208230360C0230361D5
:1043EC0004230025836103264FF40033266284F8EE
:1043FC00345084F8355084F836504362FEF790FF01
:10440C00334B236020466560A560E5602561FEF7AF
:10441C00C5FA29462046FEF7DFFC2E484FF4403300
:10442C0043602D4B8560C5600360FDF798FC044626
:10443C0000B1FEE7314603F0CDF82346224627496A
:10444C00274803F043FA204602F0C2FA054650B161
:10445C00F0224FF4A071204602F028FAF0224FF41B
:10446C00A071204608E04FF4A072F02102F01EFA71
:10447C004FF4A072F02128461A4C02F0FFF9174BAA
:10448C001949A3614FF0FF3363602160002002F0F3
:10449C00DFF9002002F090FAC0106061134A21216C
:1044AC00002002F04BFA124A2321002002F046FAB7
:1044BC00104A1921002002F041FA0F4A282100204D
:1044CC00BDE8704002F03ABAE0210220641F0020DF
:1044DC0000680140081F002000B0024080B40008B2
:1044EC0038B30008481F0020000020D049410008C4
:1044FC00514000089140000881410008F0B5013995
:10450C008FB0044615460D2900F2AC80DFE801F0AF
:10451C0007AA344B525877745F8AAA909A440028A1
:10452C0040F09E805149019009680A91FF21069143
:10453C004FF4C061F022089107214FF4A07302924E
:10454C000390059007908DF834008DF835008DF8A8
:10455C00360009910B9201A90246454804930C932D
:10456C00FEF701FB204602F027FA082878DC2146EA
:10457C003F48FEF7A9FB73E03C4E1C234343F7185E
:10458C005068FA687969F358504301FB00312246B0
:10459C003748FEF701FC63E0344912681C2303FB27
:1045AC00001462605CE00346012229463048FEF7A5
:1045BC001FFB55E02E4B1A68936943F0010304E08E
:1045CC002B4B1A68936923F00103936148E013683D
:1045DC00274A012B1368126803F184034FEAC014B5
:1045EC0019590CBF41F0010121F001011951536A15
:1045FC0043F00103536233E0034606CA0EE001AAFE
:10460C00694602F049FF194A1C2303FB04232A685C
:10461C00DA606A681A619DE8060023461448FEF7C2
:10462C006DFB1DE0024629681148FEF795FB17E06B
:10463C00156801460E4815B1FEF712FB10E0FEF7A7
:10464C0029FB0DE013681904C3F3074201F47F0141
:10465C00114303F47F43024619430548FEF7ACFAB5
:10466C00002001E04FF0FF300FB0F0BD481F0020DC
:10467C00E021022070470000024B1A6818601046B7
:10468C00704700BFB82202200A4A0B49002313705E
:10469C000A4A0B6013600A4A4B601360094A1360A4
:1046AC005360094A1360094A1360094A1360094AA6
:1046BC0013607047BC1F0020A0220220941F002012
:1046CC00C4220220CC220220D82202208C220220DA
:1046DC00B8220220C8220220F0B5054685B00C464F
:1046EC001646002D4CD0284603F0B0FD876A019089
:1046FC00BB0701463DD502AD26B12846324602F035
:10470C00B3FC02E003C885E803002046294602F00A
:10471C00E8FE70B317F0010F019B1ED13EB1B3F947
:10472C000220B6F902309A42A8BF134601E0B3F951
:10473C000230B4F902209342B4F9062006DDBDF82C
:10474C000A3019B28A4214DB013B04E0BDF80E308A
:10475C0019B28A420DDDE3800BE0DF694FB13846B8
:10476C0021462A46FFF7B8FF384603F065FD076A75
:10477C00F4E704A850F80C3D1D6A03F075FDB0E792
:10478C0005B0F0BD2DE9FF4104460F4690460025CB
:10479C00002C37D0204603F059FD866A0190B207F1
:1047AC00014628D502ACB8F1000F04D02046424691
:1047BC0002F05AFC02E003C884E8030038462146A4
:1047CC0002F08FFEB8B1F30705D4BDF80C300133FD
:1047DC003B8001250FE0019BDE6966B1304639460E
:1047EC002246FFF7CFFF0028304618BF012503F003
:1047FC0023FD066AF1E704A850F80C3D1C6A03F08F
:10480C0033FDC5E7284604B0BDE8F081F0B5044699
:10481C0085B00E461746002C31D0204603F016FD0D
:10482C00856A0190AA07014622D502AC27B1204621
:10483C003A4602F019FC02E003C884E80300304653
:10484C00214602F04EFE98B1EB0704D4BDF80830B7
:10485C00013BB3800CE0019BDD694DB1284631462C
:10486C002246FFF7D3FF284603F0E6FC056AF4E77F
:10487C0004A850F80C3D1C6A03F0F6FCCBE705B01D
:10488C00F0BD0000F7B507460D46284603F0DEFCE8
:10489C00836A02AC13F00206014644F8040D04D1FD
:1048AC00204603F0E1FC304616E0384602F00EFCE0
:1048BC00019B9E69204656B903F0D6FC074B1A683B
:1048CC00954208D058682B1A5842584104E003F01E
:1048DC00CBFC3546D9E7012003B0F0BD9022022075
:1048EC00F0B5044685B00D46002949D003F0AEFC66
:1048FC000023036285610190284603F0A7FC019B0D
:10490C00C56902909F6A2DB9C46101A803F0ACFC83
:10491C0002A833E0284603F099FC04AE07F0080720
:10492C0046F8040D77B9836A1A070BD5019B1D62F3
:10493C00029B01A8DC6103F097FC02A803F094FC35
:10494C0030461BE002A803F08FFC304603F08CFCD1
:10495C00284603F071FC0390039B1D6A0DB91C6281
:10496C000BE0284603F068FC002FF4D1836A1B0788
:10497C00F1D5039B1C62019B1D6201A803F074FC22
:10498C0005B0F0BD03460846B3F90220B3F9001098
:10499C0002F0CCBD114B30B51C68626C85B005467D
:1049AC00BAB11068516802AB03C30D4B186800B95B
:1049BC00A06C03F04BFC04AC02A944F80C0DFFF7FF
:1049CC00E1FF204603F050FC02A8294602F07EFBD2
:1049DC0002A801F025FF05B030BD00BF600000202B
:1049EC008C2202201FB50E4B1B6893F854200AB181
:1049FC000C4811E0986C03F029FC019003C802AC40
:104A0C0084E8030001A803F02FFC074B196811B1CF
:104A1C002046FFF737FF2046FFF7BCFF04B010BD60
:104A2C0060000020A01F00208C22022013B5044639
:104A3C0000B303F00BFC826A0190930717D5406A10
:104A4C0040B10D4B1B68A34204D001F04FF9019B00
:104A5C0000225A62204603F0BDFE04463CB12046BB
:104A6C00FFF7E4FF204603F0E7FB046AF6E701A832
:104A7C0003F0FAFB02B010BDD4220220B0F90020E2
:104A8C00B0F904309A4208DCB0F90220B0F90630D3
:104A9C009A42CCBF002001207047002070470000D4
:104AAC00F0B585B006460D46174603F0C5FB846A83
:104ABC000190A30734D52846FFF7E0FF00282FD03C
:104ACC0040F601032340012B2AD0304603F0BEFBF5
:104ADC0002AC024601902946204602F0C5FA204657
:104AEC00FFF7CCFFC8B1019B9E6A44F22001314014
:104AFC0003F1080529B128462946224602F026FD75
:104B0C000BE094E803003E4385E803009E62054BEE
:104B1C001A8801321A8002F09FFC01A803F0A4FB52
:104B2C0005B0F0BDA82202202022FFF7B9BFF0B5D6
:104B3C000F4685B01546064648B303F087FB836ADB
:104B4C0004AC9B07024644F80C0D03D4204603F03A
:104B5C008BFB1CE002A8394602F086FA0028F5D03F
:104B6C00204603F081FB304602A92A46FFF798FF46
:104B7C00304603F02FFE04464CB1204602A92A46CB
:104B8C00FFF7D5FF204603F057FB046AF4E705B0A6
:104B9C00F0BD2DE9FF41804617461D460C46002905
:104BAC0030D0084603F052FB866A0190B3070246E8
:104BBC0025D502A8414602F057FA00B340F601038E
:104BCC003340012B07D1019B02A899691A6A2B4625
:104BDC00FFF7DFFF04E0204602A92A46FFF760FF3B
:104BEC00019BDC695CB1BC4209D0204602A92A4673
:104BFC00FFF79DFF204603F01FFB046AF2E701A8B4
:104C0C0003F032FB04B0BDE8F0812023FFF7C1BFF5
:104C1C001FB504AB019043F8101D694603F0A6FDC7
:104C2C0005B05DF804FB00230B8082884B80038861
:104C3C00D31A8B80C2884388D31ACB807047F0B5C7
:104C4C000F4687B00546002833D003F0FFFA866A7A
:104C5C000190B2072AD503C804ACF30384E803001F
:104C6C0002D52846FFF7E2FE5FB13868796802ABDF
:104C7C0003C3019802A9FFF785FE204602A902F0A2
:104C8C0025FA20462946FFF7FDFD78B140F60103D1
:104C9C003340012B06D1019B204699691A6AFFF714
:104CAC00B4FF03E028462146FFF73EFF01A803F0BE
:104CBC00DBFA07B0F0BD0021FFF7C1BF10B5044609
:104CCC0003F0BAFA80690028F9D1054B1A689442AE
:104CDC0005D05868844214BF4FF0FF30012010BD3E
:104CEC009022022008B5FFF7E9FF002803DBBDE89E
:104CFC00084002F0DBBB08BD0D4A136870B59D6C13
:104D0C000446164608B90B4A14689C642046FFF703
:104D1C00E9FF02F049F8204603F08EFA3368B0F947
:104D2C000010B0F90220D9641A65284670BD00BF86
:104D3C0060000020AC2202202DE9F74F0C9D9B4611
:104D4C004B4B0746884692461E6865BB494B1B88F1
:104D5C0063B3494B1B685A7C484B53F822305A1C9E
:104D6C0024D01BB31D46284603F070FAB0F900207E
:104D7C00B0F90230019017449844BAF1000F05D1F4
:104D8C00B0F904A0C2EB0A0A0AF1010ABBF1000F48
:104D9C0005D1B0F906B0C3EB0B0B0BF1010B01A85D
:104DAC0003F062FA02E06B1CDDD100250F982C3069
:104DBC0003F068FC0446002856D00D9B1E432D4B77
:104DCC001A8801321A8003F041FA0E9B03610DF12F
:104DDC0008092B4B826A49F8080D33400780A0F86C
:104DEC0002805744D8441343013F08F1FF388362D3
:104DFC008780A0F80680684603F036FA214B1868C5
:104E0C0048B103F019FA0746204603F015FA7B69FE
:104E1C0043617C6100E01C6029462046FFF760FD81
:104E2C00B50602D52046FFF767FFF00703D5164BF2
:104E3C001A6801321A60710602D5204603F0F8FC9C
:104E4C00B2070DD5204603F001FA836A009043F0B7
:104E5C0002038362684603F007FA2046FFF72BFF34
:104E6C0020460121FFF7D4FE204603B0BDE8F08FA9
:104E7C00B82202208822022060000020902202200A
:104E8C009F3F3F00AC220220D82202202DE9FF4197
:104E9C005D4F3B6893F85400002800F0B2805B4BE8
:104EAC005A69012A1C4603DD013A5A610020A8E028
:104EBC0004F108061B6996E80300013302AD236177
:104ECC0085E8030023B92388ADF80830638811E026
:104EDC00A3896289ADF80A2001339BB2B4F904208E
:104EEC00ADF808301BB29A4206DA2388ADF80830C8
:104EFC00E3890133ADF80A30BDF90A20B4F9063064
:104F0C00DFF808819A4204DD6369013B002063618C
:104F1C0077E03B68986C03F099F9BDF90820B8F973
:104F2C00003001909A421CD1B8F80630ADF80E3022
:104F3C00B8F80430ADF80C30334B1B689A6C5AB18E
:104F4C00104603F079F980460022006A2946FFF7E3
:104F5C00C3FBD8F81820F2E7019B2946D869FFF764
:104F6C00BBFBBDF80830ADF80C303B689A6C6AB1ED
:104F7C00104603F061F9294680460022006AFFF7CB
:104F8C0001FC0028EDD1D8F81820F0E7019B294648
:104F9C00D869FFF7F7FB0028E3D1A388BDF90820F7
:104FAC00ADF80C301BB29A4207DD95E8030086E899
:104FBC00030001A803F058F997E73B689A6C52B1CB
:104FCC00104603F039F907460022006A2946FFF71C
:104FDC001DFCBA69F3E704AF294657F80C3DD869B4
:104FEC00FFF714FC384603F03FF9236944F62062BE
:104FFC00934289DC95E8030086E80300FFF7F2FC96
:10500C00012004B0BDE8F08160000020981F002052
:10501C002DE9F041394F3B6893F8542086B0064691
:10502C0012B9FFF7DFFC64E0354D6A690132012AE1
:10503C006A612C465DDC986C03F008F94FF0FF3286
:10504C002A61304A009012782AB100F1080302AAB2
:10505C0093E8030005E0826A12F002080AD003C844
:10506C0002AA82E8030002AD66B12846314602F07E
:10507C002DF807E06B696846013B6B6103F0F4F8AF
:10508C00404637E03B68204E5A6CC2B1009B10681A
:10509C005168019304AB03C3336833B101A803F027
:1050AC00E3F8306803F0D2F80190019804A9FFF7F7
:1050BC0069FC284604A902F009F801A800E068463A
:1050CC0003F0D2F8316819B12846FFF7DBFB28B1A1
:1050DC003B682846996CFFF7D5FB18B96369013B0F
:1050EC00636107E095E8030084E80300FFF7CEFE58
:1050FC0000E0012006B0BDE8F08100BF6000002098
:10510C00981F0020B52202208C220220024B1B6823
:10511C00012283F8542070476000002010B504462B
:10512C0040682368E168172B0FD006DC0E2B0ED0DD
:10513C00142B14D103F062FB11E0222B0CD0282B82
:10514C000DD1BDE81040FFF7B6BDE06010BD2146A3
:10515C00BDE8104003F028BB6FF0704300E0002363
:10516C00E36010BD03680E2B10B5044602D00F2B64
:10517C0009D020E0C3685A68012A21D11868BDE81B
:10518C00104002F0CBB90F4A436811688B4206D02D
:10519C005268934214BF4FF0FF33012300E0002309
:1051AC00094A52F823006FF07043984203D002F082
:1051BC006FF902F02DFC2046BDE81040FFF7AEBFA2
:1051CC0010BD00BF90220220BC22022030B52B4B18
:1051DC00187885B01D4600284DD1294B1860294BF5
:1051EC001860294B1B685864284B1880284B0446C0
:1051FC001880204602F0F6FAC0B14FF0FF320223BD
:10520C008DE80C00002043F6FF72224B02930390B2
:10521C0013460146FFF790FD1F4B43F824001F4B2C
:10522C006FF0704243F82420FFF745FD0134022C47
:10523C00DFD11B4803F0F4FA1A4803F0F1FA1A48CC
:10524C0003F0EEFA194803F0EBFA194803F0E8FA08
:10525C00184803F0E5FA104B1868FFF74DFDFFF7FF
:10526C0055FF01232B701448144B036005B0BDE8A7
:10527C00304002F0DDBB05B030BD00BFBC1F0020CC
:10528C00AC220220B81F002060000020A8220220BF
:10529C00882202207151000890220220BC22022098
:1052AC00F8230220E8230220D82302200024022025
:1052BC00F0230220E0230220B01F002095460008B6
:1052CC0013B550B102F0C2FF044602A840F8044DD9
:1052DC0002F0CAFF04F11800FFE702B010BD000095
:1052EC000248012918BF0020704700BF1C9C000811
:1052FC000248162918BF0020704700BFC588000857
:10530C0008290CBF20200020704708B50068C3682E
:10531C001B6A984708BD37B580680C4602F096FFAB
:10532C00034602A89988DA881D8940F8043D5B89F8
:10533C002180628029441A440139013AA180E2801B
:10534C0002F092FF03B030BD0E4B1B6873B50546DF
:10535C00186E0E4602F07AFF034602A8B3F9064017
:10536C0040F8043D03F11801361BDC68B3F9043036
:10537C0004FB0614ED1A02F077FF04EB85042046BB
:10538C0002B070BD6000002008B508461146FFF75A
:10539C00DBFF006808BD0000154B1B6873B5186E69
:1053AC0015460E4602F052FF294600903046FFF794
:1053BC00CBFF009B1B681B6904469B6898472368BE
:1053CC005840009B2060586960B102F03FFF02AC6E
:1053DC00836844F8040D1B6831462A4698472046DA
:1053EC0002F042FF684602F03FFF02B070BD00BF02
:1053FC006000002073B51C46104B1B68186E0E46DF
:10540C00154602F023FF294600903046FFF79CFF1B
:10541C00009B0460586960B102F018FF02AC83680D
:10542C0044F8040D1B6831462A469847204602F082
:10543C001BFF684602F018FF02B070BD6000002030
:10544C002DE9F7432C4D1E462B68186E0F4614465B
:10545C0002F0FCFE00904069A94608B102F0F6FE8D
:10546C00019021463846FFF76FFFD9F80020009BCA
:10547C00D16B127CD3F80C80D1F80090D207054682
:10548C001FD51B681B699B6898478046019828B1FB
:10549C0082683946D2F800C02246E0472B6883EA7E
:1054AC0008032B60009B0134DB68B4421D44EDDD26
:1054BC00684602F0D9FE019BD3B101A802F0D4FEDC
:1054CC0016E0019B63B10198836822461B6839463C
:1054DC0001349847B442C5F800904544F3DDE7E742
:1054EC00341B0134013CC5F800904544FAD1DFE788
:1054FC0003B0BDE8F08300BF600000202DE9F04F41
:10550C00DFF8ACB01446DBF8002085B0106E0F4607
:10551C001D4602F09BFE214602903846FFF714FF11
:10552C00029ADBF80030D2F80C90DB6B064650691F
:10553C00D3F800A0ED1B013538B302F087FE0E9AAC
:10554C000DF11008131B48F8040D01330093394674
:10555C0022462B4603F08CFA404602F085FE14E0FE
:10556C00DBF800301B7CDB0713D5029B1B681B6927
:10557C009B68984732462B461168013B81EA000133
:10558C0042F8041BF8D14E4401340E9B9C42E7DDDB
:10559C0008E0002DF7DD2B463246013B42F804AB08
:1055AC00FBD1F0E702A802F05FFE05B0BDE8F08F7A
:1055BC006000002007B50092FFF7A0FF03B05DF874
:1055CC0004FB00002DE9F04F9E4C9A46236891B0E5
:1055DC008046186E07920E46DDF874B01F9D0028A9
:1055EC0000F07F8302F032FE0E90406908B102F0A9
:1055FC002DFE0F9010A850F8083DDB680A9302F0BE
:10560C0033FE1E9F0F983744049750B123681B7CC0
:10561C009C0706D41A9F00970499079A534603F0E7
:10562C0027FA04980799FFF78FFE1B9F172F064642
:10563C005BDD4FEA8A0705974FF000091A9F0F9818
:10564C00B9454EDA30B18368079A5C6804994A44CC
:10565C005346A047D8F81030DB682BB1304659467A
:10566C00059A03F0A9FE35E0354657465C463B46A5
:10567C0022464FF0000C52F8041B090E08BF0CF127
:10568C00010C013BA1B1BCF1000F14D04FEA8C030B
:10569C00284621461A460393CDF808C003F08CFE29
:1056AC00039BDDF808C01D441C44CCEB07070FE03E
:1056BC00002BE0D1E7E72068020EFF2A05D0D24389
:1056CC002968D2B201F020FD286004350434013F72
:1056DC00002FCCD11C9FBB440A9F09F101093E4409
:1056EC00ACE7002840F0FA82FBE21B9F102F37D169
:1056FC00061F00251A9F0F9CBD4280F29E80079FBB
:10570C002F443CB1A3680499D3F804C020463A4610
:10571C005346E047ABF1020306930596D146049934
:10572C00D8F81030069A5B6832F8020F0692514492
:10573C00C9EB010103919847059B039943F8040FAA
:10574C00059324B1A36820461B683A469847B9F1E3
:10575C000109E4D11C9FBB440A9F01353E44C9E7B3
:10576C001B9F082F00F104066ED1079F079A1A9908
:10577C000F9CBB1A8B42A6F104005EDA314B1B68FE
:10578C001B7C6DB313F0030305D0022B4FD1B14634
:10579C00DDF810801CE01BF8032055F8222040F89F
:1057AC00232001335345F6D141E055F8233049F815
:1057BC00043C2CB1A36820461B6841463A469847E6
:1057CC00049B08F101085344434509F104092ED008
:1057DC000499C1EB0B0313F80830002BF0D0E4E76D
:1057EC0013F0030305D0022B21D1B146DDF8108054
:1057FC0015E05946524603F0DFFD18E049F8043C29
:10580C002CB1A36820461B6841463A469847049B36
:10581C0008F101085344434509F1040907D0049ADF
:10582C00C2EB0B0313F80830002BF0D0E6E71C9BFF
:10583C000A999B4401370E4498E7002C40F04E82A5
:10584C004FE200BF600000201E9FB24B09967F0004
:10585C000C971E9FBF000D97079F0597002D08BF43
:10586C001D46099F07993C1F059F7B1A1A9FBB4237
:10587C0080F232821B9F022F00F0AD80042F00F0CB
:10588C004F81012F40F01E82DFF89092D9F8003042
:10589C00186E02F0DBFC9BF800309F4A1E99D65C18
:1058AC00D9F800300E901B7CDDF83CC003F00303EC
:1058BC00022B5746C1F1080846FA01F620D0032BFB
:1058CC0061D0012B5FD05A46474538BFB846C8EB6C
:1058DC0007074346214606F00100013B55F820001E
:1058EC0041F8040B4FEA5606F5D104EB8804002F5F
:1058FC006DD012F8013F88494FF00808CE5CE3E701
:10590C006B68DDF810900B93CDF820B0474538BF8D
:10591C00B846C8EB0707BCF1000F26D01EB904EB44
:10592C008804C14425E0F0070CD5DCF80830059A52
:10593C001B68CDF808C06046494698470B9BDDF8BC
:10594C0008C02360B8F1010809F1010904F104044D
:10595C000FD07608E2E7F10744BF0B9B2360B8F148
:10596C00010804F1040404D07608002EF3D104EBF2
:10597C00880467B30899684A11F8013F0891D65C0E
:10598C004FF00808C2E703681B699B6898475946A3
:10599C00474538BFB846C8EB0707231DC646F20774
:1059AC0004D553F8042C424043F8042CBEF1010EEC
:1059BC004FEA560603F10403F1D104EB880437B126
:1059CC0011F8013F544A4FF00808D65CE0E70EA8E6
:1059DC0002F04AFC76E11E9F0C9BDDF83CC0C7F13F
:1059EC0004069BF800709F404C4B1B681B7C03F01B
:1059FC000303012BF6B2FFB266D008D3022B40F0A2
:105A0C0061810499CDF820B0D04606913EE05A460B
:105A1C0053469E42C8BFDEB29B1B314620464FEA1E
:105A2C00971C013955F82CC040F804CBBF0011F07D
:105A3C00FF01FFB2F3D1013EF6B2013604EB86044E
:105A4C00002B00F03F8112F8017F0426E1E7069954
:105A5C0017F0C00F494422D109F101095FFA89F20C
:105A6C00BF009642FFB2F2D1069F013EF6B27B1CFC
:105A7C00721C9E1904EB82040696B8F1000F00F01C
:105A8C002181089B13F8017F089304264645C8BF63
:105A9C005FFA88F6C6EB08084FF00009D7E7BA0999
:105AAC0055F8222044F82920BCF1000FD4D0DCF8A2
:105ABC00082012680B926046CDF808C0059A0B9B23
:105ACC009847DDF808C0C7E7584653469E42C8BF02
